:100000000C9434000C943E000C943E000C943E0082
:100010000C943E000C943E000C943E000C943E0068
:100020000C943E000C943E000C943E000C943E0058
:100030000C943E000C943E000C943E000C943E0048
:100040000C943E000C943E000C943E000C943E0038
:100050000C943E000C943E000C943E000C943E0028
:100060000C943E000C943E0011241FBECFEFD8E04C
:10007000DEBFCDBF0E9438010C9452010C940000E9
:100080009C01121613060CF008958FEC97E001976F
:10009000F1F700C0000021503109F3CF9C0108970F
:1000A00064F084B12850310941E050E001C0440FB0
:1000B0002A95EAF7842B84B908958AB147E050E085
:1000C000421B530B20E830E002C0359527954A9536
:1000D000E2F7822B8AB908959C01883091056CF073
:1000E00044B12850310981E090E001C0880F2A9581
:1000F000EAF78095842384B908956AB147E050E017
:10010000481B590B80E890E002C0959587954A9569
:10011000E2F7809586238AB908959C01089764F0D8
:1001200085B12850310941E050E001C0440F2A95C3
:10013000EAF7842B85B908958BB147E050E0421B64
:10014000530B20E830E002C0359527954A95E2F739
:10015000822B8BB908959C01883091056CF045B1D4
:100160002850310981E090E001C0880F2A95EAF714
:100170008095842385B908956BB147E050E0481B12
:10018000590B80E890E002C0959587954A95E2F773
:10019000809586238BB90895D82FC92F8B010E9493
:1001A0004E008D2F9C2F0E948D00C8010E944000A0
:1001B0008D2F9C2F0E94AB00C8010E944000F1CF00
:1001C000CF92DF92EF92FF920F931F93CF93DF9323
:1001D000EC017B01142F052F0E944E00D12CC12C65
:1001E000CE14DF044CF0DF91CF911F910F91FF905F
:1001F000EF90DF90CF900895CE010E948D00812F67
:10020000902F0E944000CE010E94AB00812F902FC2
:100210000E9440008FEFC81AD80AE2CF9C010897CD
:10022000A4F083B190E02850310941E050E001C0D2
:10023000440F2A95EAF702C0959587954A95E2F70B
:100240008095909581709927089589B190E047E055
:1002500050E0421B530B20E830E002C03595279553
:100260004A95E2F702C0959587952A95E2F7E8CF7F
:1002700089E090E00E946C008DE090E00E944E00CA
:1002800089E090E00E940E01009729F48DE090E053
:100290000E948D00F5CF019799F78DE090E00E94C4
:0802A000AB00EECFF894FFCF94
:00000001FF
